:400000000040002011000000F9110000F911000080B500AF01F0F4F880B584B000AF021CFB1D1A70204A3B1C0B3312781A701F4A3B1C0A3312781A700423013BFB6018E0C8
:400040001B4B1868391C0B31FA68131C5B009B18C3185B780B70164B1868391C0A31FA68131C5B009B18C3189B780B70FB68013BFB60FB68002B0ADB0D4B1968FA68131CF1
:400080005B009B185B5CFA1D12789A42D8D9094B3A1C0B3212781A60074B3A1C0A3212781A60BD4604B080BDCCF1FF0FCDF1FF0FCC0000201CFF0B4020FF0B4080B500AF4F
:4000C0001E4B12221A603020FFF7A6FF1C4B1D4A1278D2B21A60052001F060FA1A4B35221A6001F0FDF9FA235B00181C01F032FA012001F005FA154B154A1A60154B802206
:40010000D2051A60144B154A1A60154B144A126808218A431A60FA23DB00181C01F09AF9104B181C01F03AFA0F4B802212061A600E4B8022D2021A60BD4680BD3000104093
:4001400028FF0B40FDF1FF0F2CFF0B4004010B40060000800C020B407C002E402D3E00006CF02E40DC05000008010B4000010B4080B582B000AF72B63F4B00221A60FB1D50
:4001800000221A7023E0FB1D1A78131C5B009B185B003A4A9B183B603B681A78597809020A43997809040A43DB781B0613431A1C3B6819795B791B020B439BB2101C191C91
:4001C00001F0A2F8FB1D1A78FB1D01321A70FB1D1B78012BD7D92A4A2A4B101C191C01F0A3F8294BEE2212061A60284B284A1A60284B294A1A60294B294A1A60294B2A4A7A
:400200001A602A4B992212041A60294B992212041A60284B992212041A60274BA82212051A60264B992212041A60254BA02212051A60244B234A1278D2B202210A43D2B2DD
:400240001A70214B204A1278D2B23C218A43D2B214210A43D2B21A701A4B1A4A1278D2B216210A43D2B21A70FFF728FF01F09CF8BD4602B080BDC0466CF02E40501C000099
:400280005C1C0000601C00000000024008000440B66DDB0008010440B06DDB0008020440B6250100080304403620010000500F4010500F4020500F4024500F4030500F400A
:4002C00034500F4000700F4001700F4010B5064C2378002B07D1054B002B02D0044800E000BF0123237010BDE000002000000000141C000008B5084B002B03D0074808495D
:4003000000E000BF07480368002B03D0064B002B00D0984708BDC04600000000141C0000E4000020C80000200000000080B582B000AF00237B60FB1C00221A7001F002FC8E
:40034000031C002B01D000F0BAFC01F009FC031C002B01D000F0B3FC01F010FC031C002B01D000F0ACFC7B680F2B01D100237B60FB1C1B780C2B01D900F09EFC9A00C54B80
:40038000D3181B689F46012001F068F9002001F03FF9002001F016F9012001F0CFF9002001F0A6F9002001F07DF9002001F036FA002001F00DFA012001F0E4F9002001F0A4
:4003C0009DFA002001F074FA012001F04BFA002001F006FB002001F0DDFA012001F0B4FA002001F06DFB002001F044FB012001F01BFB7B68002B02D1FB1C01221A7001F04F
:40040000A1FB031C002B2BD000237B60FB1C00221A70A14B181C01F09DF8012001F0F8F8002001F01BF9012001F062F9002001F085F9994B181C01F08DF8012001F0C2F8F7
:40044000002001F0E5F8012001F02CF9002001F04FF9FA23DB00181C01F07CF800F02CFC00F02AFC8D4B181C01F074F8002001F0F5F8012001F0CCF8002001F05FF9012078
:4004800001F036F9012001F07DF9012001F0EAF9012001F059FA012001F0C6FA7B68012B02D1FB1C02221A7001F04CFB031C002B09D101F055FB031C002B04D101F05EFBBB
:4004C000031C002B1BD000237B60FB1C00221A70714B181C01F03EF8012001F073F8002001F096F8012001F0DDF8002001F000F9FA23DB00181C01F02DF800F0DDFB664B27
:40050000181C01F027F800F0D7FB002001F080F8012001F057F8002001F0EAF8012001F0C1F8002001F054F9012001F02BF9002001F0BEF9012001F095F9012001F004FA01
:40054000012001F071FA7B68022B02D1FB1C03221A707B68052B07D101F0D8FA031C002B02D0FB1C05221A707B68052B04D101F0CDFA031C002B07D07B68082B0CD101F01E
:40058000D3FA031C002B07D0FB1C07221A707B68082B01D008237B607B68052B04D101F0B5FA031C002B07D07B68082B09D101F0BBFA031C002B04D1FB1C0A221A700B233D
:4005C0007B6001F0BFFA031C002B09D101F0C8FA031C002B04D101F0D1FA031C002B0AD000237B60FB1C00221A70FA23DB00181C00F0B0FF60E35FE3294B181C00F0AAFF4E
:40060000012000F0DFFF012001F04CF8002001F0B9F8012001F002F9012001F023F9012001F092F9012001F0FFF97B68032B02D1FB1C04221A7001F085FA031C002B09D192
:4006400001F08EFA031C002B04D101F097FA031C002B1ED000237B60FB1C00221A700E4B181C00F077FF012001F0B2F8002001F0D5F8094B181C00F06DFF012001F082F86A
:40068000002001F0A5F8FA23DB00181C00F062FF12E311E3181C0000B80B000010270000E2040000CE4B181C00F054FF012000F089FF012000F0F6FF002001F0AFF801200A
:4006C00001F086F8012001F0CDF8012001F03CF9012001F0A9F97B68042B02D1FB1C02221A7001F02FFA031C002B09D101F038FA031C002B04D101F041FA031C002B14D035
:4007000000237B60FB1C00221A70B64B181C00F021FF012001F036F8002001F059F8FA23DB00181C00F016FFC6E2AF4B181C00F011FFC1E2FA239B00181C00F00BFF012060
:4007400000F040FF012000F0ADFF002001F040F8012001F017F8002001F084F8012001F0CDF8012001F0F0F8012001F05DF97B68062B02D1FB1C06221A7001F0E3F9031CC1
:40078000002B09D101F0ECF9031C002B04D101F0F5F9031C002B1ED000237B60FB1C00221A70904B181C00F0D5FE012001F080F8002001F0A3F88B4B181C00F0CBFE01207B
:4007C00001F050F8002001F073F8FA23DB00181C00F0C0FE70E26FE2844B181C00F0BAFE012000F0EFFE012000F05CFF012000F0C9FF002001F036F8002001F07FF80120F1
:4008000001F056F8012001F09FF8012001F00CF97B68072B02D1FB1C02221A7001F092F9031C002B09D101F09BF9031C002B04D101F0A4F9031C002B14D000237B60FB1CF7
:4008400000221A70674B181C00F084FE012001F009F8002001F02CF8FA23DB00181C00F079FE29E2604B181C00F074FE002001F01FF821E2FA239B00181C00F06BFE0120BC
:4008800000F0A0FE012000F00DFF012000F07AFF012000F0E7FF002001F056F8012001F09FF8002001F0C0F8012001F009F97B68092B02D1FB1C08221A7001F043F9031C26
:4008C000002B09D101F04CF9031C002B04D101F055F9031C002B2AD000237B60FB1C00221A70404B181C00F035FE012001F052F8002001F075F8012001F0BCF8002001F0C7
:40090000DFF8384B181C00F025FE012001F01CF8002001F03FF8012001F086F8002001F0A9F8FA23DB00181C00F014FEC4E1C3E1FA231B01181C00F00DFE012000F042FE36
:40094000012000F0AFFE012000F01CFF012000F089FF002001F044F8012001F01BF8002001F0AEF8012001F0ABF87B680A2B02D1FB1C09221A7001F0E5F8031C002B09D16D
:4009800001F0EEF8031C002B04D101F0F7F8031C002B24D000237B60FB1C00221A70114B181C00F0D7FD002001F08AF8012001F061F80C4B181C00F0CDFD012000F0C4FFF7
:4009C000002000F0E7FF012001F02EF8002001F051F8FA23DB00181C00F0BCFD6CE16BE14C1D0000B80B0000BE0A000088130000AA4B181C00F0AEFD012000F0E3FD01209C
:400A000000F050FE012000F0BDFE002000F050FF012000F027FF002000F0BCFF012000F093FF002001F026F8012001F049F87B680B2B02D1FB1C0A221A7001F083F8031CE2
:400A4000002B09D101F08CF8031C002B04D101F095F8031C002B1ED000237B60FB1C00221A708F4B181C00F075FD012001F002F8002001F025F88A4B181C00F06BFD01203A
:400A800000F0D2FF002000F0F5FFFA23DB00181C00F060FD10E10FE1FA239B00181C00F059FD012000F08EFD002000F0FBFD012000F044FE012000F065FE012000F0D2FE99
:400AC000002000F0F5FE012000F03EFF002000F0ABFF012000F0F4FF7B680C2B02D1FB1C0B221A7001F02EF8031C002B09D101F037F8031C002B04D101F040F8031C002B3F
:400B00002AD000237B60FB1C00221A70644B181C00F020FD012000F0ADFF002000F0D0FF012000F0E5FD002000F008FE5C4B181C00F010FD012000F077FF002000F09AFF5D
:400B4000012000F0AFFD002000F0D2FDFA23DB00181C00F0FFFCAFE0AEE0524B181C00F0F9FC012000F02EFD012000F0E7FD012000F008FE012000F075FE012000F0E4FE30
:400B8000002000F09DFF012000F074FF7B680D2B02D1FB1C0C221A7000F0D4FF031C002B09D100F0DDFF031C002B04D100F0E6FF031C002B24D000237B60FB1C00221A70A2
:400BC000374B181C00F0C6FC012000F091FD002000F0B4FD324B181C00F0BCFC012000F023FF002000F046FF012000F05BFD002000F07EFDFA23DB00181C00F0ABFC5BE05A
:400C00005AE0274B181C00F0A5FC012000F0DAFC012000F093FD012000F0B4FD012000F021FE012000F090FE002000F023FF012000F0FAFE7B680E2B02D1FB1C00221A703D
:400C400000F080FF031C002B09D100F089FF031C002B04D100F092FF031C002B26D000237B60FB1C00221A700D4B181C00F072FC012000F03DFD002000F060FD084B181C9F
:400C800000F068FC012000F00DFD002000F030FD054B181C00F05EFC0EE0C046C4090000B80B000070170000DC050000FA239B00181C00F04FFCC0467B6801337B6000F0BF
:400CC00041FF031C002B00D1A5E000F049FF031C002B00D09FE000F051FF031C002B00D099E000F02FFF031C002B09D000F038FF031C002B04D100F041FF031C002B39D066
:400D0000012000F085FC012000F0F2FC012000F05FFD012000F0CCFD012000F03BFE012000F0A8FEBE4B181C00F014FC012000F049FC002000F06CFC012000F0B3FC0020EF
:400D400000F0D6FC012000F01DFD002000F040FD012000F087FD002000F0AAFD012000F0F3FD002000F016FE012000F05DFE002000F080FE002000F071FC012000F048FCFC
:400D8000002000F01FFC002000F0D8FC012000F0AFFC002000F086FC002000F03FFD002000F016FD012000F0EDFC002000F0A6FD002000F07DFD012000F054FD002000F0BE
:400DC0000FFE002000F0E6FD012000F0BDFD002000F076FE002000F04DFE012000F024FE904B181C00F0B6FB002000F011FC002000F07EFC002000F0C5FC002000F032FDAF
:400E0000002000F0A1FD002000F00EFEFA239B00181C00F09FFB00F095FE031C002B00D072E000F09DFE031C002B6DD000F0A6FE031C002B68D158E0012000F00FFC0020E6
:400E400000F0E6FB002000F0BDFB002000F076FC002000F04DFC012000F024FC002000F0DDFC002000F0B4FC012000F08BFC002000F044FD002000F01BFD012000F0F2FC14
:400E8000002000F0ADFD002000F084FD012000F05BFD002000F014FE002000F0EBFD012000F0C2FD00F04EFE031C002B09D100F057FE031C002B04D000F060FE031C002B39
:400EC00013D0002000F0CAFB012000F0A1FB564B181C00F03FFB002000F09AFB012000F071FB514B181C00F035FB00F02BFE031C002B09D100F034FE031C002B04D000F00F
:400F00003DFE031C002B97D000F01CFE031C002B00D172E000F024FE031C002B6DD000F02DFE031C002B68D158E0002000F096FB002000F06DFB012000F044FB012000F065
:400F4000FDFB002000F0D4FB002000F0ABFB002000F064FC002000F03BFC012000F012FC002000F0CBFC002000F0A2FC012000F079FC002000F034FD002000F00BFD012089
:400F800000F0E2FC002000F09BFD002000F072FD012000F049FD00F0D5FD031C002B09D000F0DEFD031C002B04D000F0E7FD031C002B13D0002000F0C1FB012000F098FBA6
:400FC000194B181C00F0C6FA002000F091FB012000F068FB144B181C00F0BCFA00F0B2FD031C002B09D000F0BBFD031C002B04D000F0C4FD031C002B97D000F0A3FD031CC7
:40100000002B00D07AE000F0ABFD031C002B00D074E000F0B3FD031C002B6FD05FE0C046B80B0000DC050000C4090000002000F015FB002000F0ECFA012000F0C3FA002072
:4010400000F07CFB002000F053FB012000F02AFB012000F0E3FB002000F0BAFB002000F091FB002000F04AFC002000F021FC012000F0F8FB002000F0B3FC002000F08AFC49
:40108000012000F061FC002000F01AFD002000F0F1FC012000F0C8FC00F054FD031C002B09D100F05DFD031C002B04D100F066FD031C002B13D1002000F0B0FB012000F0AE
:4010C00087FB4C4B181C00F045FA002000F080FB012000F057FB474B181C00F03BFA00F031FD031C002B09D100F03AFD031C002B04D100F043FD031C002B97D100F022FD22
:40110000031C002B00D172E000F02AFD031C002B6DD100F033FD031C002B68D058E0002000F09CFA002000F073FA012000F04AFA002000F003FB002000F0DAFA012000F04E
:40114000B1FA002000F06AFB002000F041FB012000F018FB012000F0D1FB002000F0A8FB002000F07FFB002000F03AFC002000F011FC012000F0E8FB002000F0A1FC0020A1
:4011800000F078FC012000F04FFC00F0DBFC031C002B09D000F0E4FC031C002B04D100F0EDFC031C002B13D1002000F0A7FB012000F07EFB0F4B181C00F0CCF9002000F000
:4011C00077FB012000F04EFB0A4B181C00F0C2F900F0B8FC031C002B09D000F0C1FC031C002B04D100F0CAFC031C002B97D1FFF7A5F8C046C409000080B500AFFEE7C046BF
:4012000080B586B000AF224B7B61224B3B61204B7B6135E03B691B68FB603B695B68BB603B699B683B6000237B600CE0FB681A68BB681A60BB680433BB60FB680433FB60CA
:401240007B6804337B607A683B689A42EED13B69DB683B6000237B6008E0BB6800221A60BB680433BB607B6804337B607A683B689A42F2D13B6910333B617B69013B7B6125
:401280007B69002BC6D100F097FCFFF74FF8FEE701000000881C000080B582B000AF154B144A126801218A431A6000237B600FE07B68032B04D8104B7A689200D35800E0D3
:4012C0000E4B0F4A796889008B507B6801337B607B682F2BECD9FEF74BFF0A4B00221A60044B044A126801210A431A60BD4602B080BDC0460000104000000000F911000081
:4013000000000020C000002080B582B000AF786039607A683B68101C00211A1C00F072FCBD4602B080BDC04680B586B000AF7860396000233B6100237B612EE07B699B00F2
:401340007A68D3181B68BB603B1C0F33BA681A70BB68FF229343BB6017E03B695B003A68D3181B781A1CBB68D3183A69520039688A1852781A703B6901333B613B1C0F3395
:401380001A783B1C0F33013A1A703B1C0F331B78002BE2D17B6901337B617B69002BCDD0BD4606B080BDC04680B500AF054B03221A60054B03221A60044B00221A60BD46E7
:4013C00080BDC0463000304030003140000E3F4080B500AF0B4B0B4A126801218A431A60094B094A126830218A4310210A431A60054B054A126807218A4301210A431A603C
:40140000BD4680BD00F02E4000FF2E4080B500AF0E4B0E4A126802218A431A600C4B0C4A126807218A4302210A431A60084B084A126830218A4320210A431A60034B034A42
:40144000126801210A431A60BD4680BD00F02E4000FF2E4080B584B000AF78600023FB60154B154A126801210A431A60134B144A1A60144B134A1268802109020A431A608F
:401480007B68002B13D01023FB600DE0012000F085F800F019F8031C002B02D00023FB6005E07B68013B7B607B68002BEED1FB68181CBD4604B080BD60F02E4078002E40BC
:4014C0000220000010002E4080B500AF034B1A6801231340181CBD4680BDC0460C002E4080B500AFFFF774FF044B044A1268802109060A431A60BD4680BDC04600F02E40AE
:4015000080B584B000AF78600C4B1A6801231340FB607B68002B02D0012B03D005E0FFF757FF06E0FFF772FF03E0002000F008F8C046FB68181CBD4604B080BD00F02E40D1
:4015400080B582B000AF021CFB1D1A7001BEBD4602B080BD80B582B000AF786008E00C4B1B68181C00F018FB7B680A4A9B187B607A6880231B029A42F1D8074B1B687A683A
:401580005343181C00F008FBBD4602B080BDC046DC0000200080FFFFD400002080B582B000AF021CBB1D1A80BB1D1B88044A12785343181C00F0F0FABD4602B080BDC04673
:4015C000D800002080B584B000AF021CFB1D1A700E4B1B68DAB23B1C0F3304218A431A70FB1D1B789B00DAB204231340D9B23B1C0F333A1C0F3212780A431A70034B3A1C92
:401600000F3212781A60BD4604B080BD0002044080B584B000AF021CFB1D1A700E4B1B68DAB23B1C0F3302218A431A70FB1D1B78DB18DAB202231340D9B23B1C0F333A1CBC
:401640000F3212780A431A70034B3A1C0F3212781A60BD4604B080BD0002044080B584B000AF021CFB1D1A700D4B1B68DAB23B1C0F3301218A431A70FB1D1A780123134033
:40168000D9B23B1C0F333A1C0F3212780A431A70034B3A1C0F3212781A60BD4604B080BD0002044080B584B000AF021CFB1D1A700E4B1B68DAB23B1C0F3304218A431A7096
:4016C000FB1D1B789B00DAB204231340D9B23B1C0F333A1C0F3212780A431A70034B3A1C0F3212781A60BD4604B080BD0001044080B584B000AF021CFB1D1A700E4B1B68AC
:40170000DAB23B1C0F3308218A431A70FB1D1B78DB00DAB208231340D9B23B1C0F333A1C0F3212780A431A70034B3A1C0F3212781A60BD4604B080BD0001044080B584B0CD
:4017400000AF021CFB1D1A700D4B1B68D9B23B1C0F337F220A401A70FB1D1B78DB01D9B23B1C0F333A1C0F3212780A431A70044B3A1C0F3212781A60BD4604B080BDC046FF
:401780000001044080B584B000AF021CFB1D1A700E4B1B68DAB23B1C0F3308218A431A70FB1D1B78DB00DAB208231340D9B23B1C0F333A1C0F3212780A431A70034B3A1C3B
:4017C0000F3212781A60BD4604B080BD0000044080B584B000AF021CFB1D1A700E4B1B68DAB23B1C0F3302218A431A70FB1D1B78DB18DAB202231340D9B23B1C0F333A1CFD
:401800000F3212780A431A70034B3A1C0F3212781A60BD4604B080BD0000044080B584B000AF021CFB1D1A700D4B1B68DAB23B1C0F3301218A431A70FB1D1A780123134073
:40184000D9B23B1C0F333A1C0F3212780A431A70034B3A1C0F3212781A60BD4604B080BD0000044080B584B000AF021CFB1D1A700E4B1B68DAB23B1C0F3304218A431A70D6
:40188000FB1D1B789B00DAB204231340D9B23B1C0F333A1C0F3212780A431A70034B3A1C0F3212781A60BD4604B080BD0000044080B584B000AF021CFB1D1A700E4B1B68EB
:4018C000DAB23B1C0F3310218A431A70FB1D1B781B01DAB210231340D9B23B1C0F333A1C0F3212780A431A70034B3A1C0F3212781A60BD4604B080BD0000044080B584B0BC
:4019000000AF021CFB1D1A700E4B1B68DAB23B1C0F3320218A431A70FB1D1B785B01DAB220231340D9B23B1C0F333A1C0F3212780A431A70034B3A1C0F3212781A60BD466E
:4019400004B080BD0000044080B584B000AF021CFB1D1A700E4B1B68DAB23B1C0F3302218A431A70FB1D1B78DB18DAB202231340D9B23B1C0F333A1C0F3212780A431A7021
:40198000034B3A1C0F3212781A60BD4604B080BD0001044080B584B000AF021CFB1D1A700E4B1B68DAB23B1C0F3302218A431A70FB1D1B78DB18DAB202231340D9B23B1C2E
:4019C0000F333A1C0F3212780A431A70034B3A1C0F3212781A60BD4604B080BD0003044080B584B000AF021CFB1D1A700D4B1B68DAB23B1C0F3301218A431A70FB1D1A788E
:401A000001231340D9B23B1C0F333A1C0F3212780A431A70034B3A1C0F3212781A60BD4604B080BD0003044080B584B000AF021CFB1D1A700E4B1B68DAB23B1C0F334021B5
:401A40008A431A70FB1D1B789B01DAB240231340D9B23B1C0F333A1C0F3212780A431A70034B3A1C0F3212781A60BD4604B080BD0001044080B584B000AF021CFB1D1A7070
:401A80000E4B1B68DAB23B1C0F3320218A431A70FB1D1B785B01DAB220231340D9B23B1C0F333A1C0F3212780A431A70034B3A1C0F3212781A60BD4604B080BD0001044026
:401AC00080B584B000AF021CFB1D1A700E4B1B68DAB23B1C0F3310218A431A70FB1D1B781B01DAB210231340D9B23B1C0F333A1C0F3212780A431A70034B3A1C0F32127821
:401B00001A60BD4604B080BD0001044080B500AF044B1A68102313401B09DBB2181CBD4680BDC0460402044080B500AF044B1A6808231340DB08DBB2181CBD4680BDC04625
:401B40000402044080B500AF044B1A68102313401B09DBB2181CBD4680BDC0460403044080B500AF044B1A68202313405B09DBB2181CBD4680BDC0460403044080B500AF85
:401B8000044B1A68202313405B09DBB2181CBD4680BDC046040204400230800803D00138FDD1C046C046C0467047EFF3108072B6704780F31088704770B50E4B0E4D00249C
:401BC000ED1AAD101E1CAC4204D0A300F35898470134F8E700F046F8084B094D0024ED1AAD101E1CAC4204D0A300F35898470134F8E770BD701C0000701C0000701C0000D7
:401C0000781C0000031C8218934202D019700133FAE770470000000086030000640400000A050000F8050000A406000034070000D80700007408000030090000F0090000EC
:401C4000980A00005A0B0000020C00000400000000300F40000400400F40000402600F4002011101F8B5C046F8BC08BC9E467047F502000099120000F8B5C046F8BC08BCDC
:401C80009E467047CD020000981C0000C8000020180000002000000000000000C0F1FF0F006CDC0280BB0000300000000000C05D0000000000000000000000000000000055
:401CC00000000000000000000000000000000000000000000000000000000000000000000000000000000000000000000000000000000000000000000000000000000000E4
:401D000000000000000000000000000000000000000000000000000000000000000000000000000000000000000000000000000000000000000000000000000000000000A3
:401D40000000000000000000000000000000000000000000000000000000000000000000000000000000000000000000000000000000000000000000000000000000000063
:401D80000000000000000000000000000000000000000000000000000000000000000000000000000000000000000000000000000000000000000000000000000000000023
:020000040001F9
:0200000490303A
:0200000032D7F5
:0200000490402A
:4000000000000000000000000000000000000000000000000000000000000000000000000000000000000000000000000000000000000000000000000000000000000000C0
:400040000000000000000000000000000000000000000000000000000000000000000000000000000000000000000000000000000000000000000000000000000000000080
:0200000490501A
:0C00000000020E34119E00010E3E4475FB
:0200000490600A
:0100000001FE
:00000001FF